:0400000002001132B7
:03000B00020335B8
:03006A0002000E83
:03000E0002007A73
:20006D00858246E546600512054080F7224391C04392C0120D271202AD1203237582211214
:20008D0003B512046B50081202F812048740FB1201B130790BE5327007E5317003120F62CC
:2000AD00307814E53BB5330FE53CB5320A7401B53105755500D200300028753000C2957589
:2000CD00822112006DD29575821412006D053074FB253050E87582C812006D1204EA50D76A
:0700ED00C20012056480ABA4
:2000F400AF828FF005F07401800225E0D5F0FB429D75BD0075BC8022AF8274A84FF5BC005A
:20011400E5BC30E4FB53BCEFAEBDE4CE25E0CE33CE25E0CE33FF740355BE7C004EF582EC70
:180134004FF58322AF8274A84FF5BC00E5BC30E4FB53BCEF85BD8222E9
:20014C002200000022C292C29012014DD29022AF827E00C291EF30E002D291C292C007C084
:20016C000612014DD006D007D292EFC313FF0EBE080040DF227F00D2917E00D292C007C0D8
:20018C000612014CD006D007C292000000A291E433035480FDEFC313FFED42070EBE080001
:2001AC0040D98F82221201517582BF12015B120181E582F531120181E582F532120181E5A3
:2001CC0082F533120181E582F535120181E582F534120181E582F536120181E582F53702D1
:2001EC0001511201517582BE12015B85318212015B85328212015B85338212015B853582E9
:20020C0012015B85348212015B85368212015B85378212015B75820012015B020151120198
:20022C00517582FF12015B7D387E007F407C0AC007C006C005C004120181AB82D004D00505
:20024C00D006D0078D828E838FF0EB120FC2A3AD82AE83EC14FBFC70D6120151853A2F22C4
:20026C00852F3A1201517582FE12015B7D387E007F407C008D828E838FF0121023FBA3AD20
:20028C0082AE838B82C007C006C005C00412015BD004D005D006D0070CBC0A0040D60201CD
:2002AC005112015175828E12015B75820012015B75829012015B75820012015B7582811241
:2002CC00015B120181AF8253077F758280C00712015BD0078F8212015B12015112022AAFC5
:2002EC0038E5396207BFFF01220202F87D317E007F407C00EC90107B93FB8D828E838FF0BB
:17030C00120FC2A3AD82AE830CBC110040E61201EE853A2F02026C96
:11107B005559A71231011655AAE0880088A5500500CC
:20032300438E80758CFB758AAFC28DD28CD2A9D2AF22C023C0E0C0F0C082C083C007C006AF
:20034300C005C004C003C002C001C000C0D075D000120D34AF4F154FEF700C754F3C120301
:20036300BDE54660021546AF421542EF70277542C8E54E6002154EAF431543EF700B754324
:200383000AB204E54560021545AF441544EF7005754432B203D0D0D000D001D002D003D0AE
:2003A30004D005D006D007D083D082D0F0D0E0D02332858246E54670FC22E54725E0FEE560
:2003C3004833FFA2B1E4337D004206ED42078E4774E04FF5488547828548831204A7858224
:2003E3004974F0B54902D201E54A25E0FEE54B33FFA2B0E4337D004206ED42078E4A74E056
:200403004FF54B854A82854B831204A785824C74E0B54C0474018001E4FF74E0B54D047496
:20042300018001E45207E54EB401009205E433FE520774F0B54C0474018001E44F600575A1
:200443004CF0D20274E0B54C0474018001E4FF74E0B54D03D38001C3B39205E433FE5F60C9
:2004630003754E19854C4D2274E0B5490474018001E4FF74E0B54C0474018001E45F600237
:20048300D322C322C201C20274FFB5490474018001E4FF74FFB54C0474018001E45F600297
:2004A300C322D322AE82AF83BFE0047EE08010BFF0047EF08009BFFF047EFF80027E008EF5
:2004C30082228547828548830204A7854A82854B830204A7854A82854B831204A7AF82BF88
:2004E300E002D322A204221001028002D322C3221002028002D322C322AF82100101228F87
:200503005522AF82100101228F552006021555740AB5500122855082020B92AF82100201A6
:1D052300228F5522AF82100201228F552007021555740AB5510122855182020B9218
:20054000C208A2039209A203920AA20C920B1201B1853382120BD8853253D20E120BEDD24C
:200560000F020C32758206120138E5820303543FFF7E008F828E83120E4B85825BA20D8247
:2005800003501075820712010C120E7885825CC20D8005200302D20DE55524D05003020BFA
:2005A00062E555240B83F582E555243483F583E4731146789EBDCFE1FA132537658B9DD2F0
:2005C000F80A31587099C2D4FD152D3E4F677F97AFC0D101EA1845315986729AACDC0F2F3E
:2005E0004B06060606060606060707070707070707080808080808080809090909090909C9
:200600000909090A090A0A0A0A0A0A0A0A0A0B0B0B1205407582051204FC1204F3500675F8
:2006200045C87555017430B5310280012275451E307A0475550222307B0475550322207C05
:20064000012275550422C208A2039209C20AC20B1201B1853252853153D20E120BEDD20F43
:20066000120C327582001204FC75820012051EE54560012275550022120CC6758205120466
:20068000FC1204F3E54560012275451E307B0475550322307C047555042275550022120C88
:2006A000FB7582051204FC1204F3E54560012275451E307C047555042275550022120D0EEA
:2006C000E5457002F5557582051204FC0204F3758200120B667582061204FC75820902059D
:2006E0001E758201120B667582071204FC755101A2789207758218020527758202120B661E
:200700007582081204FC755105A27A920775821C020527758203120B6675822F1204FC75DD
:20072000822102051E758200120B9275820C1204FC75820A02051ED209D20AA20C920B12FC
:2007400004D7920E120BEDD20F120C3275820B1204FC1204F3400122853382120D73AF8266
:200760008F33020BD8D20E120BED1204D7920F120C3275820C1204FC1204F34001228553B1
:2007800082120D9685825385533222758201120B9275820F1204FC75820D02051E853B8272
:2007A000120BD8853C53D209D20AA20C920B1204D7920E120BEDD20F120C3275820E12044B
:2007C000FC1204F3400122853B82120D73E582F53B22D20E120BED1204D7920F120C3275E7
:2007E000820F1204FC1204F3400122855382120D9685825385533C22758202120B927582AC
:20080000121204FC75821002051E120C771204D7920E120BEDD20F120C327582111204FC11
:200820001204F3400122853D82120D73E582F53D22120C77D20E120BED1204D7920F120C90
:20084000327582121204FC1204F3400122853E82120D73E582F53E22D209C20AC20B7582E1
:2008600003120B927582151204FC75821302051E120CA11204D7920E120BEDD20F120C32F2
:200880007582141204FC1204F3400122756400855282120DA585825222120CA1D20E120BA2
:2008A000ED1204D7920F120C3275822F1204FC1204F3400122756402855382120DA58582C9
:2008C0005322758204120B9275822F1204FC75821602051E853653C209C20E120BED1204C6
:2008E000D7920F120C3275822F1204FC1204F3400122853682120DF8E582F53622120BD196
:20090000C278755002A279920675821A12050575821802051E120BCAD278755002A279921D
:200920000675821A12050575821702051E120BD1C27975822F1204FC75821A02051E120B9D
:20094000CAD27975822F1204FC75821902051E120BD1C27A755003A27B920675821E120542
:200960000575821C02051E120BCAD27A755003A27B920675821E12050575821B02051E1210
:200980000BD1C27B755004A27C920675822012050575821E02051E120BCAD27B755004A2B3
:2009A0007C920675822012050575821D02051E120BD1C27C75822F1204FC75822002051E17
:2009C000120BCAD27C75822F1204FC75821F02051E758208120B667582241204FC75510AF0
:2009E000A27F9207758223020527758206120BAED210120EF97582241204FC7582220205E5
:200A00001E758207120BAEC210120EF97582241204FC75822302051E758207120B66758220
:200A2000271204FC75510AA27D9207758226020527758208120BAED27D7582271204FC75EC
:200A4000822502051E758209120BAEC27D7582271204FC75822602051E758206120B667559
:200A6000822A1204FC75510AA27E9207758229020527758209120B66D27E75822A1204FCDB
:200A800075822802051E75820A120B66C27E75822A1204FC75822902051E758204120B6658
:200AA00075822D1204FC75822B02051ED209C20AC20B853F528540531204D7920E120BED80
:200AC000D20F120C3275822C1204FC1204F3400122855282120E07E582F53F22854053D21D
:200AE0000E120BED1204D7920F120C3275822D1204FC1204F3400122855382120E078582D6
:200B000054C3E53F9554500375540185544022AF3FC3EF954050068F4075552B22758205AC
:200B2000120B6675822F1204FC75822E02051E120CC675822F1204FC1204F35028AF41BF64
:200B40000F047541F122EF04F54122120D271201EE12026C754506E54570FC1204EA755587
:200B6000002275550022E582258225E0FF9010A093FE8E5DEF049010A093FE8E5E74022F44
:200B80009010A093FE8E5F74032F9010A093FF8F6022E5822582FF90108C93FE8E5DEF0466
:200BA00090108C93FF8F5E755FFF7560FF22AF82755DFF755EFFEF2FFF90108C93FE8E5F26
:200BC000EF0490108C93FF8F6022755F9C7560AB22755FC075608E22AF82307F0B741F5F4B
:200BE000F552EFA2E5920C228F52C20C22300E047F0080027FFF8F563008047F7F80027FC6
:200C0000FF8F573009047F7F80027FFF8F5874F05552C4540F9010CC93FFE5564F5557F572
:200C20005D740F55529010CC93FFE5564F5558F55E22300F047F0080027FFF8F56300A049E
:200C40007F7F80027FFF8F59300B047F7F80027FFF8F5A74F05553C4540F9010D693FFE568
:200C6000564F5559F55F740F55539010CC93FFE5564F555AF56022307F1A741F553DF552BF
:200C8000E53DA2E59209741F553EF553E53EA2E5920B800A853D52C209853E53C20BC20A43
:200CA00022307E088534528535538006853552853453D20922307E07855234855335228535
:200CC000523585533422AF5CE5412FF582120EBC85825274F05552C4540F9010CC93FF8F94
:200CE0005D740F55529010CC93FF8F5E307D05755F318003755F707560FF22D209C20AC2A5
:200D00000B120CA1D20E120BEDD20F020C32C209C20AC20B755DFF755EFF755FFFE5369079
:200D200010CC93FF8F6022755DFF755EFF755FFF7560FF22E562601B8561F005F074048043
:200D40000225E0D5F0FBF452B0E561245DF987A0156222E563600643B03C15632205617405
:200D6000FC25615003756100855B62743FC39562F56322AF82307F078F82120EDFAF82EF88
:200D80002401D4FFBF24027F00307F078F82120ED3AF828F8222AF82EF2401D4FFBF6002A0
:200DA0007F008F8222AF82E5647015307E098F82120DD6AE82801C8F82120DE7AE8280131F
:200DC000307E098F82120DE7AE8280078F82120DD6AE828E8222AF82EF2401D4FFBF13023A
:200DE0007F018F348F8222AF82EF2401D4FFBF32027F018F358F8222AF82EF2401D4FFBF24
:160E000008027F018F8222AF82EF2401D4FFBF64027F018F82222F
:20108C00C6C788C7C689A188A191878CCFA4A499FF8EFFC69286B8FF8386B08CA192A1FFC2
:2010AC00C68E82FF83AFB8FFC688F8FFA188B8868786C98CF924A499F92486F9B079CFA4C6
:1410CC00C0F9A4B0999282F88090C0CFA4868B9290C780821F
:200E1600E565C39567F582E5669568F583E56DC3956BF56FE56E956CF570120FDDE569C33B
:200E36009567F56FE56A9568F57012103FAE82E56B2EF5822285826585836675673FE4F515
:200E560068F569F56A854082120EA8AF828F6B756C00853F82120EA8AF828F6D756E00021C
:200E76000E168582658583667567F2756802756919756A01307D0E756B20756C00756D7BE1
:200E9600756E00800AE4F56BF56C756D33F56E020E16AF8274F05FC4540F75F00AA4FE74EC
:200EB6000F5F2EF58222AF8275F00AEF84FE75F00AEF84AFF0EEC454F04FF58222120EA8AF
:200ED600E5829010E093F58222AF827E00EE9010E093FDB5070280060EEE24E850EF8E82A1
:200EF600020EBCA210207F01B3406030102FD27FD27ED27D853382120ED3E582F533853B90
:200F160082120ED3E582F53B853D82120ED3E582F53D853E82120ED3E582F53E22C27FC2E8
:200F36007EC27D853382120EDFE582F533853B82120EDFE582F53B853D82120EDFE582F59F
:200F56003D853E82120EDFE582F53E22A27F9211C210120EF9AF33AE3DAD3EA2119210C0C2
:200F760007C006C005120EF9D005D006D007C3ED9E50068E048D068C05C3EF9E4003020F30
:200F9600A0C3ED9F4003020FA0227F00C295758214C0071203B5D2957582431203B5D00782
:0C0FB6000FBF030040E67582640203B523
:1810E000928182838485868788899091B2A1A2A3A4A5A6A7A8A9B0B1B8
:06004000E478FFF6D8FD94
:20001E007900E94400601B7A009010F8780175A000E493F2A308B8000205A0D9F4DAF27580
:02003E00A0FF21
:1B0FC20020F71130F6138883A88220F509F6A8837583002280FEF280F5F0222E
:1D0FDD00E582856FF0A4C582C0F08570F0A4D0F025F0C583856FF0A42583F58322A1
:200FFA007A10E4FBFCE58225E0F582E58333F583EB33FBEC33FCEB956FF5F0EC957040063D
:09101A00FCABF0438201DADD2297
:200046007800E84400600A790175A000E4F309D8FC7800E84400600C7900900001E4F0A3B8
:04006600D8FCD9FAEF
:0D001100758170121077E582600302000E09
:1C10230020F71430F6148883A88220F507E6A88375830022E280F7E49322E022DC
:20103F00C2D5E58330E70DD2D5E4C39582F582E49583F583E57030E70DB2D5E4C3956FF57E
:18105F006FE49570F570120FFA30D50BE4C39582F582E49583F58322C6
:04107700758200225C
:00000001FF
