:0400000002001132B7
:03000B000202F3FB
:03006A0002000E83
:03000E0002006D80
:20006D00439140439240439180439280120BD31202A81202E17582211203731203BE500835
:20008D0012028F1203DA40FB12020A30790BE5327007E53170031200FD307814E53BB533CA
:2000AD000FE53CB5320A7403B53105755000D2001200D21204C680D3858247E54760051215
:2000CD0004A280F722300027C2957582421200C5D2957582211200C5C2957582421200C559
:2000ED00D2957582E11200C512040450D8C20022A27F9201C212120DF5AF33AE3DAD3EA2C1
:20010D00019212C007C006C005120DF5D005D006D007C3ED9E400BEF9E4014ED9F401002ED
:20012D00013DC3EF9E5005C3ED9F400302013D22C295758242120373D295758221120373BC
:10014D00C295758242120373D2957582FA020373BA
:20015D00AF828FF005F07401800225E0D5F0FB429D75BD0075BC8022AF8274A84FF5BC00F0
:20017D00E5BC30E4FB53BCEFAEBDE4CE25E0CE33CE25E0CE33FF740355BE7C004EF582EC07
:18019D004FF58322AF8274A84FF5BC00E5BC30E4FB53BCEF85BD822280
:2001B50000000022C292C2901201B5D29022AF827E00C291EF13920292911201B5C292122D
:2001D50001B5D292EFC313FF0EBE080040E4227F007E00D2921201B5C2921201B5A291E4B6
:2001F50033035480FDEFC313FFED42070EBE080040E18F82221201B97582BF1201C37A07E8
:2002150079311201E4A78209DAF80201B91201B97582BE1201C37A07793187821201C309FE
:20023500DAF87582001201C30201B91201B97582BF1201C37A0379311201E4A78209DAF8D4
:200255000201B91201B97582FF1201C37A0A79381201E4A78209DAF81201B9853A2F221217
:2002750001B9852F3A7582FE1201C37A0A793887821201C309DAF80201B97A11790078319E
:20029500900EE4E993F60809DAF9120222853A2F0202741201B97A0579F587821201C30934
:2002B500DAF81201E4AF8253077F758280C0071201C3D0078F821201C31201B9120258AF9D
:0C02D50038E5396207BFFF012202028FEA
:160EE4005559191231011655AA00080008176301008E00900081AE
:2002E100438E80758CFB758AAFC28DD28CD2A9D2AF22C023C0E0C0F0C082C083C007C006F2
:20030100C005C004C003C002C001C000C0D075D00012045AAF421542EF700975423CE54739
:2003210060021547AF431543EF702A7543C812037BE54A6002154AAF441544EF700B7544BC
:200341000AB206E54660021546AF451545EF7005754532B205D0D0D000D001D002D003D0E7
:2003610004D005D006D007D083D082D0F0D0E0D02332858247E54770FC22E54825E0FFA2E1
:20038100B1E433FE4F44E0F54874F0B54802D203E54925E0FFA2B0E433FE4F44E0F54974F0
:2003A100E0B5490474018001E4FFE54AB401009207E433FE5F6005754A12D2042274E0B559
:2003C100480474018001E4FF74E0B5490474018001E45F6002D322C322C203C20474FFB579
:2003E100480474018001E4FF74FFB5490474018001E45F6002C322D32274E0B54902D322A4
:20040100A206221003028002D322C3221004028002D322C322AF82100301228F5022AF8295
:20042100100301228F502008021550740AB54B0122854B82020ACCAF82100401228F5022E3
:19044100AF82100401228F502009021550740AB54C0122854C82020ACCFE
:20045A00E55D601B855CF005F07404800225E0D5F0FBF452B0E55C2458F987A0155D22E5F4
:20047A005E600643B03C155E22055C74FC255C5003755C0085565D743FB55D04755E01226D
:20049A00743FC3955DF55E22C20AA205920BA205920CA20E920D12020A853382120B1285B5
:2004BA00324ED211120C90C211020CD37582061201A1E5820303543FFF7E008F828E8312FB
:2004DA000D45858256A20F82055010758207120175120D74858257C20F8005200502D20FE6
:2004FA00E55024D05003020A9CE550240B83F582E550243483F583E47373A6DC0827394BD9
:20051A00647D8FA1CBECFE2C4B5D7D9DB5DDFF11334B6374859DB5CDE5F60737204E7B6709
:20053A008FBCA8D0E20D395975050505060606060606060606060607070707070707070857
:20055A000808080808080808080809090909090909090909090A0A0A0A1204A275820512E0
:20057A00041612040D50067546C87550017430B5310280012275461E307C03755004307B5A
:20059A0003755003207A012275500222C20AA205920BC20CC20D12020A85324D85314E12EB
:2005BA000C90120CD375820012041612040D50097531001202227546C8E546600122755023
:2005DA000022120B7675820512041612040DE54660012275461E307C03755004307B0375DF
:2005FA005003307B0122307C012275500022120BAB75820512041612040DE54660012275D4
:20061A00461E307C047550042275500022120BBAE5467002F55075820512041602040D7571
:20063A008200120AA0758206120416758209020438758201120AA0758207120416754C015B
:20065A00A2789209758218020441758202120AA0758208120416754C05A27A920975821C05
:20067A00020441758203120AA075822F120416758221020438758200120ACC75820C1204C3
:20069A001675820A020438D20BD20CA20E920D120C96120CD375820B12041612040D4001AA
:2006BA0022853382120BE0AF828F33120B12D21022120C90120CD975820C12041612040DAA
:2006DA00400122854E82120C0385824E854E32D21022758201120ACC75820F1204167582C0
:2006FA000D020438D20BD20CA20E920D853B82120B12853C4E120C96120CD375820E12044B
:20071A001612040D400122853B82120BE0E582F53B22120C90120CD975820F12041612043E
:20073A000D400122854E82120C0385824E854E3C22758202120ACC75821212041675821016
:20075A00020438120B27120C96120CD375821112041612040D400122853D82120BE0E582F6
:20077A00F53D22120B27120C90120CD975821212041612040D400122853E82120BE0E582BE
:20079A00F53E22D20BC20CC20D758203120ACC758215120416758213020438120B51120C82
:2007BA0096120CD375821412041675822F12041612040D400122755F00854D82120C1285AC
:2007DA00824D22120B51120C90120CD975821512041612040D400122755F02854E82120CF4
:2007FA001285824E22758204120ACC75822F12041675821602043885364EC20B120C93123D
:20081A000CD975822F12041612040D400122853682120C65E582F53622120B0BC278754B6B
:20083A0002A279920875821A12041F758218020438120B04D278754B02A279920875821A61
:20085A0012041F758217020438120B0BC27975822F12041675821A020438120B04D2797518
:20087A00822F120416758219020438120B0BC27A754B03A27B920875821E12041F75821CF8
:20089A00020438120B04D27A754B03A27B920875821E12041F75821B020438120B0BC27B1A
:2008BA00754B04A27C920875822012041F75821E020438120B04D27B754B04A27C920875A4
:2008DA00822012041F75821D020438120B0BC27C75822F120416758220020438120B04D2D5
:2008FA007C75822F12041675821F020438758204120AA0758224120416754C0AA27F920937
:20091A00758223020441758206120AE8D212120DF5758224120416758222020438758207C7
:20093A00120AE8C212120DF575822412041675822302043875820A120AA07582271204160B
:20095A00754C0AA27D9209758226020441758208120AE8D27D7582271204167582250204D6
:20097A0038758209120AE8C27D758227120416758226020438758209120AA075822A12044A
:20099A0016754C0AA27E9209758229020441758205120AA0D27E75822A12041675822802C4
:2009BA000438758206120AA0C27E75822A120416758229020438758207120AA075822D124D
:2009DA00041675822B020438D20BC20CC20D853F4D85404E120C96120CD375822C120416F1
:2009FA0012040D400122854D82120C7485824F854F3F2285404E120C90120CD975822D12F8
:200A1A00041612040D400122854E82120C7485824FC3E53F954F5003754F01854F4022AF17
:200A3A003FC3EF954050068F4075502B22758208120AA075822F12041675822E020438121D
:200A5A000B7675822F12041612040D5038AF41BF0F047541F122EF04F54122120BD3201008
:200A7A00051202408005753100C210120222120274754606E54670FC12040412040D7550EE
:200A9A00002275500022E582258225E0FF900F0E93FE8E58EF04900F0E93FE8E5974022F40
:200ABA00900F0E93FE8E5A74032F900F0E93FF8F5B22E5822582FF900EFA93FE8E58EF04F6
:200ADA00900EFA93FF8F59755AFF755BFF22AF827558FF7559FFEF2FFF900EFA93FE8E5A33
:200AFA00EF04900EFA93FF8F5B22755A9C755BAB22755AC0755B8E22AF82307F0B741F5FBF
:200B1A00F54DEFA2E5920E228F4DC20E22307F1A741F553DF54DE53DA2E5920B741F553ED7
:200B3A00F54EE53EA2E5920D800A853D4DC20B853E4EC20DC20C22307E0885354D85344E15
:200B5A00800685344D85354ED20B22307E07854D35854E3422854D34854E3522AF57E541A7
:200B7A002FF582120DB885824D74F0554DC4540F900F3A93FF8F58740F554D900F3A93FF7B
:200B9A008F59307D05755A318003755A70755BFF22D20BC20CC20D120B51120C90020CD377
:200BBA00C20BC20CC20D7558FF7559BFE536900F4493FF8F5A755BBF227558FF7559FF7520
:200BDA005AFF755BFF22AF82307F078F82120DDBAF82EF2401D4FFBF24027F00307F078FFE
:200BFA0082120DCFAF828F8222AF82EF2401D4FFBF60027F008F8222AF82E55F7015307E74
:200C1A00098F82120C43AE82801C8F82120C54AE828013307E098F82120C54AE8280078FAD
:200C3A0082120C43AE828E8222AF82EF2401D4FFBF13027F018F358F8222AF82EF2401D4D9
:200C5A00FFBF32027F018F348F8222AF82EF2401D4FFBF08027F018F8222AF82EF2401D465
:200C7A00FF8F82C007120DA4AE82D007EE24C050027F018F8222D38006C380031203FA74C0
:200C9A00FF3400F55174FFA20AB313F55274FFA20BB313F553900F3AE54DC4540F301106EE
:200CBA00700474FF80059345515552F558740F554D9345515553F55922D38006C38003127A
:200CDA0003FA74FF3400F55174FFA20CB313F55474FFA20DB313F555E54EC4540F900F4471
:160CFA009345515554F55A740F554E900F3A9345515555F55B227F
:200EFA00C6C788C7C689A188A191878CCFA4A499FF8EFFC69286B8FF8386B08CA192A1FF56
:200F1A00C68E82FFF924A499F92486F9B079CFA483AFB8FFC688F8FFA188B8868786C98C59
:140F3A00C0F9A4B0999282F88090C0CFA4868B9290C78082B2
:200D1000E560C39562F582E5619563F583E568C39566F56AE5699567F56B120E62E564C3F5
:200D30009562F56AE5659563F56B120EA8AE82E5662EF5822285826085836175623F7563E3
:200D500000756401756500854082120DA4AF828F66756700853F82120DA4AF828F687569B4
:200D700000020D108582608583617562F2756302756419756501307D0E75662075670075FD
:200D9000687B756900800AE4F566F567756833F569020D10AF8274F05FC4540F75F00AA4A2
:200DB000FE740F5F2EF58222AF8275F00AEF84FE75F00AEF84AFF0EEC454F04FF5822212FA
:200DD0000DA4E582900F4E93F58222AF827E00EE900F4E93FDB5070280060EEE24E850EF2D
:200DF0008E82020DB8A212207F01B34064301231D210D27FD27ED27D853382120DCFE5828D
:200E1000F533853B82120DCFE582F53B853D82120DCFE582F53D853E82120DCFE582F53E3B
:200E300022D210C27FC27EC27D853382120DDBE582F533853B82120DDBE582F53B853D8204
:120E5000120DDBE582F53D853E82120DDBE582F53E2202
:180F4E00928182838485868788899091B2A1A2A3A4A5A6A7A8A9B0B14B
:06004000E478FFF6D8FD94
:20001E007900E94400601B7A00900F66780175A000E493F2A308B8000205A0D9F4DAF27513
:02003E00A0FF21
:1D0E6200E582856AF0A4C582C0F0856BF0A4D0F025F0C583856AF0A42583F583222C
:200E7F007A10E4FBFCE58225E0F582E58333F583EB33FBEC33FCEB956AF5F0EC956B4006C3
:090E9F00FCABF0438201DADD2214
:200046007800E84400600A790175A000E4F309D8FC7800E84400600C7900900001E4F0A3B8
:04006600D8FCD9FAEF
:0D00110075816B120EE0E582600302000EA7
:200EA800C2D5E58330E70DD2D5E4C39582F582E49583F583E56B30E70DB2D5E4C3956AF521
:180EC8006AE4956BF56B120E7F30D50BE4C39582F582E49583F58322EA
:040EE00075820022F5
:00000001FF
