:0400000002001132B7
:03000B000203D914
:03006A0002000E83
:03000E0002006D80
:20006D00439140439240439108439208120C7E1203511203C775822112045912050F5008AE
:20008D0012039C12052B40FB12022230790BE5327007E53170031200FD307814E53BB53351
:2000AD000FE53CB5320A7403B53105755500D2001200D212064C80D3858246E5466005128A
:2000CD00062C80F722300027C2B37582421200C5D2B37582211200C5C2B37582421200C573
:2000ED00D2B37582E11200C512058E50D8C20022A27F9201C210120E97AF33AE3DAD3EA277
:20010D00019210C007C006C005120E97D005D006D007C3ED9E50068E048D068C05C3EF9EFA
:20012D00400302013BC3ED9F400302013B22C2B3758242120459D2B3758221120459C2B3A1
:0E014D00758242120459D2B37582FA02045927
:20015B00AF828FF005F07401800225E0D5F0FB429D75BD0075BC8022AF8274A84FF5BC00F2
:20017B00E5BC30E4FB53BCEFAEBDE4CE25E0CE33CE25E0CE33FF740355BE7C004EF582EC09
:18019B004FF58322AF8274A84FF5BC00E5BC30E4FB53BCEF85BD822282
:2001B30000000022C2B253C8EF1201B343C81022AF827E0053C8DF74015FC42354E042C8E7
:2001D300C007C0061201B3C2B21201B3D006D007D2B2EFC313FF0EBE080040D8227F007E7F
:2001F30000D2B2C007C0061201B3C2B21201B3D006D007742055C8C4035407035480FDEF98
:20021300C313FFED42070EBE080040D58F82221201B77582BF1201C31201F0E582F53112AC
:2002330001F0E582F5321201F0E582F5331201F0E582F5351201F0E582F5341201F0E58209
:20025300F5361201F0E582F5370201B71201B77582BE1201C38531821201C3853282120161
:20027300C38533821201C38535821201C38534821201C38536821201C38537821201C375D9
:2002930082001201C30201B71201B77582811201C31201F0E582F5311201B775828312013A
:2002B300C31201F0E582F5321201B77582851201C31201F0E582F5330201B71201B77582AE
:2002D300FF1201C37D387E007F407C0AC007C006C005C0041201F0AB82D004D005D006D029
:2002F300078D828E838FF0EB120F00A3AD82AE83EC14FBFC70D61201B7853A2F22852F3A31
:200313001201B77582FE1201C37D387E007F407C008D828E838FF0120F61FBA3AD82AE83A8
:200333008B82C007C006C005C0041201C3D004D005D006D0070CBC0A0040D60201B71201A6
:20035300B775828E1201C37582001201C37582901201C37582001201C37582811201C31221
:2003730001F0AF8253077F758280C0071201C3D0078F821201C31201B71202CEAF38E539EC
:200393006207BFFF012202039C7D317E007F407C00EC900FB993FB8D828E838FF0120F0066
:1403B300A3AD82AE830CBC110040E612025F853A2F020310BE
:110FB9005559191231011655AA00080008176301007C
:2003C700438E80758CFB758AAFC28DD28CD2A9D2AF22C023C0E0C0F0C082C083C007C0060B
:2003E700C005C004C003C002C001C000C0D075D0001205E4AF4F154FEF700C754F3C1204B4
:2004070061E54660021546AF421542EF70277542C8E54E6002154EAF431543EF700B7543DB
:200427000AB205E54560021545AF441544EF7005754432B204D0D0D000D001D002D003D007
:2004470004D005D006D007D083D082D0F0D0E0D02332858246E54670FC22E54725E0FEE5BB
:200467004833FFA2B0E4337D004206ED42078E4774E04FF54885478285488312054B8582DB
:200487004974F0B54902D202E54A25E0FEE54B33FFA2B1E4337D004206ED42078E4A74E0AF
:2004A7004FF54B854A82854B8312054B85824C74E0B54C0474018001E4FF74E0B54D04744D
:2004C700018001E45207E54EB401009206E433FE520774F0B54C0474018001E44F600575FC
:2004E7004CF0D20374E0B54C0474018001E4FF74E0B54D03D38001C3B39206E433FE5F6023
:2005070003754E19854C4D2274E0B5490474018001E4FF74E0B54C0474018001E45F600292
:20052700D322C322C202C20374FFB5490474018001E4FF74FFB54C0474018001E45F6002F0
:20054700C322D322AE82AF83BFE0047EE08010BFF0047EF08009BFFF047EFF80027E008E50
:20056700822285478285488302054B854A82854B8302054B854A82854B8312054BAF82BFF4
:20058700E002D322A205221002028002D322C3221003028002D322C322AF82100201228FDE
:2005A7005522AF82100201228F5520070215557406B5500122855082020B77AF821003011E
:1D05C700228F5522AF82100301228F5520080215557406B5510122855182020B7791
:2005E400E562601B8561F005F07410800225E0D5F0FBF452B0E561245DF987A0156222E544
:2006040063600643B0F0156322056174FC25615003756100855B62743FB562047563012200
:20062400743FC39562F56322C209A204920AA204920BA20D920C120222853382120BBD8563
:200644003253120D3B020D7575820612019FE5820303543FFF7E008F828E83120DE78582D8
:200664005BA20E82045010758203120173120E1685825CC20E8005200402D20EE55524D9DA
:200684005003020B47E555240B83F582E555242B83F583E473E71A507C9BADBFD8F10315BC
:2006A4003F6072A0BFD1F11129517385A7BFD7E8F9112941596A7B8DB8E404200607070742
:2006C4000707070707080808080808080808090909090909090909090A0A0A0A0A0A0A0A01
:2006E4000A0B0B12062C7582051205A012059750067545C87555017430B5310280012275EA
:20070400451E307C03755504307B03755503207A012275550222C209A204920AC20BC20C27
:20072400120222853252853153120D3B120D757582001205A0120597500975310012025FB1
:200744007545C8E54560012275550022120C217582051205A0120597E54560012275451E55
:20076400307C03755504307B03755503307B0122307C012275550022120C5675820512056D
:20078400A0120597E54560012275451E307C047555042275550022120C65E5457002F5558D
:2007A4007582051205A0020597758200120B4B7582061205A07582090205C2758201120BF3
:2007C4004B7582071205A0755101A27892087582180205CB758202120B4B7582081205A0A2
:2007E400755105A27A920875821C0205CB758203120B4B7582261205A07582210205C27503
:200804008200120B7775820C1205A075820A0205C2D20AD20BA20D920C120D41120D7575CB
:20082400820B1205A0120597400122853382120C8BAF828F33120BBDD20F22120D3B120D33
:200844007B75820C1205A0120597400122855382120CAE858253855332D20F2275820112B7
:200864000B7775820F1205A075820D0205C2D20AD20BA20D920C853B82120BBD853C531220
:200884000D41120D7575820E1205A0120597400122853B82120C8BE582F53B22120D3B1295
:2008A4000D7B75820F1205A0120597400122855382120CAE85825385533C22758202120B12
:2008C400777582121205A07582100205C2120BD2120D41120D757582111205A0120597407D
:2008E4000122853D82120C8BE582F53D22120BD2120D3B120D7B7582121205A01205974098
:200904000122853E82120C8BE582F53E22D20AC20BC20C758203120B777582151205A075C9
:2009240082130205C2120BFC120D41120D757582141205A07582261205A0120597400122A1
:20094400756400855282120CBD85825222120BFC120D3B120D7B7582151205A0120597404D
:200964000122756402855382120CBD85825322758204120B777582261205A075821602054D
:20098400C2853653C20A120D3E120D7B7582261205A0120597400122853682120D10E58208
:2009A400F53622120BB6C278755002A279920775821A1205A97582180205C2120BAFD2789F
:2009C400755002A279920775821A1205A97582170205C2120BB6C2797582261205A0758217
:2009E4001A0205C2120BAFD2797582261205A07582190205C2120BB6C27A755003A27B92C6
:200A04000775821E1205A975821C0205C2120BAFD27A755003A27B920775821E1205A9753A
:200A2400821B0205C2120BB6C27B755004A27C92077582201205A975821E0205C2120BAF3B
:200A4400D27B755004A27C92077582201205A975821D0205C2120BB6C27C7582261205A02C
:200A64007582200205C2120BAFD27C7582261205A075821F0205C2758204120B4B75822447
:200A84001205A07582220205C2D20AC20BC20C853F52854053120D41120D757582231205EF
:200AA400A0120597400122855282120D1F85825485543F22854053120D3B120D7B7582242E
:200AC4001205A0120597400122855382120D1F858254C3E53F95545003755401855440222F
:200AE400AF3FC3EF954050068F4075552222758205120B4B7582261205A07582250205C22D
:200B0400120C217582261205A01205975038AF41BF0F047541F122EF04F54122120C7E20F6
:200B24000F0512029B8005753100C20F12025F120310754506E54570FC12058E120597753C
:200B440055002275550022E582258225E0FF900FD693FE8E5DEF04900FD693FE8E5E7402D0
:200B64002F900FD693FE8E5F74032F900FD693FF8F6022E5822582FF900FCA93FE8E5DEFB0
:200B840004900FCA93FF8F5E755FFF7560FF22AF82755DFF755EFFEF2FFF900FCA93FE8E23
:200BA4005FEF04900FCA93FF8F6022755F9C7560AB22755FC075608E22AF82307F0B741F2A
:200BC4005FF552EFA2E5920D228F52C20D22307F1A741F553DF552E53DA2E5920A741F5500
:200BE4003EF553E53EA2E5920C800A853D52C20A853E53C20CC20B22307E0885345285356B
:200C0400538006853552853453D20A22307E078552348553352285523585533422AF5CE5C8
:200C2400412FF582120E5A85825274F05552C4540F900FF693FF8F5D740F5552900FF6935F
:200C4400FF8F5E307D05755F318003755F707560FF22D20AC20BC20C120BFC120D3B020D37
:200C640075C20AC20BC20C755DFF755EBFE53690100093FF8F5F7560BF22755DFF755EFF9D
:200C8400755FFF7560FF22AF82307F078F82120E7DAF82EF2401D4FFBF24027F00307F07C0
:200CA4008F82120E71AF828F8222AF82EF2401D4FFBF60027F008F8222AF82E56470153010
:200CC4007E098F82120CEEAE82801C8F82120CFFAE828013307E098F82120CFFAE82800713
:200CE4008F82120CEEAE828E8222AF82EF2401D4FFBF13027F018F348F8222AF82EF2401CA
:200D0400D4FFBF32027F018F358F8222AF82EF2401D4FFBF08027F018F8222AF82EF2401B9
:200D2400D4FF8F82C007120E46AE82D007EE24C050027F018F8222D38006C3800312057B8F
:200D440074FF3400F55674FFA209B313F55774FFA20AB313F558E552C4540F900FF6934570
:200D6400565557F55D740F55529345565558F55E22D38006C3800312057B74FF3400F5567E
:200D840074FFA20BB313F55974FFA20CB313F55AE553C4540F9010009345565559F55F7442
:0E0DA4000F5553900FF6934556555AF56022A1
:200FCA00C6C788C7C689A188A191878C9286B8FF8386B08CA192A1FFC68E82FF83AFB8FFC9
:200FEA00C688F8FFA188B8868786C98CC0F9A4B0999282F88090C0CFA4868B9290C78082E8
:200DB200E565C39567F582E5669568F583E56DC3956BF56FE56E956CF570120F1BE569C362
:200DD2009567F56FE56A9568F570120F7DAE82E56B2EF5822285826585836675673F756839
:200DF20000756901756A00854082120E46AF828F6B756C00853F82120E46AF828F6D756EAE
:200E120000020DB28582658583667567F2756802756919756A01307D0E756B20756C007590
:200E32006D7B756E00800AE4F56BF56C756D33F56E020DB2AF8274F05FC4540F75F00AA43F
:200E5200FE740F5F2EF58222AF8275F00AEF84FE75F00AEF84AFF0EEC454F04FF582221257
:200E72000E46E58290100A93F58222AF827E00EE90100A93FDB5070280060EEE24E850EF6D
:200E92008E82020E5AA210207F01B3406030102FD27FD27ED27D853382120E71E582F53368
:200EB200853B82120E71E582F53B853D82120E71E582F53D853E82120E71E582F53E22C2F4
:200ED2007FC27EC27D853382120E7DE582F533853B82120E7DE582F53B853D82120E7DE560
:0E0EF20082F53D853E82120E7DE582F53E22A0
:18100A00928182838485868788899091B2A1A2A3A4A5A6A7A8A9B0B18E
:06004000E478FFF6D8FD94
:20001E007900E94400601B7A00901022780175A000E493F2A308B8000205A0D9F4DAF27556
:02003E00A0FF21
:1B0F000020F71130F6138883A88220F509F6A8837583002280FEF280F5F022F0
:1D0F1B00E582856FF0A4C582C0F08570F0A4D0F025F0C583856FF0A42583F5832263
:200F38007A10E4FBFCE58225E0F582E58333F583EB33FBEC33FCEB956FF5F0EC95704006FF
:090F5800FCABF0438201DADD225A
:200046007800E84400600A790175A000E4F309D8FC7800E84400600C7900900001E4F0A3B8
:04006600D8FCD9FAEF
:0D001100758170120FB5E582600302000ECC
:1C0F610020F71430F6148883A88220F507E6A88375830022E280F7E49322E0229F
:200F7D00C2D5E58330E70DD2D5E4C39582F582E49583F583E57030E70DB2D5E4C3956FF541
:180F9D006FE49570F570120F3830D50BE4C39582F582E49583F583224B
:040FB500758200221F
:00000001FF
